:020000040800F2
:10000000D86E0020490100083D0700083F0700089E
:1000100047070008490700084B07000800000000D8
:100020000000000000000000000000004D07000874
:100030004F070008000000005107000853070008A0
:100040006301000863010008630100086301000800
:1000500063010008630100086301000863010008F0
:1000600063010008630100086301000863010008E0
:1000700063010008630100086301000863010008D0
:1000800063010008630100086301000863010008C0
:1000900063010008630100086301000863010008B0
:1000A00063010008630100086301000863010008A0
:1000B0006301000863010008630100086301000890
:1000C0006301000863010008630100086301000880
:1000D0006301000863010008630100086301000870
:1000E0006301000863010008630100086301000860
:1000F0006301000863010008630100086301000850
:10010000630100086301000863010008630100083F
:10011000630100086301000863010008630100082F
:10012000630100086301000863010008630100081F
:10013000DFF810D007F064F8004800478303000898
:10014000AFF30080D86E002006488047064800477D
:10015000FEE7FEE7FEE7FEE7FEE7FEE7FEE7FEE777
:10016000FEE7FEE72D1E00083101000870B50446C9
:100170000D4686B01521DF4806F0F2FB18216846CF
:1001800006F0EEFB0A2612E03246002320462946FE
:1001900006F09EFB04460D463032D2B2D54BD6A1B6
:1001A000684607F071FA6946D24806F0F7FB54EA50
:1001B0000500E9D106B0CF4870BD70B58AB00546DC
:1001C00006F0E5FB800701D0012400E0002428466A
:1001D00006F0DDFB04EB9000800007F015FF0446FD
:1001E00006F0D5FB0146204606F0BAFB294620461C
:1001F00006F0D4FB204606F0CAFB800701D001269A
:1002000000E00026204606F0C2FB06EB90000190BD
:10021000284606F0BCFB400501D0012600E0002680
:10022000284606F0B4FB06EBD020ADF8000005F040
:1002300003F905F018F9B24D05950020BDF800103E
:10024000039002900691009008A903A805F047F9D1
:100250008DF81C0017E000BF9DF81C0098B90098AD
:1002600054F82020029800234119022004F0E4FFF2
:100270008DF81C009DF81C0028B90298001D029002
:100280000098401C0090DDE900018842E4D305F0AD
:10029000F7F805F0E1F8204607F08EFE0AB070BDD1
:1002A0000CB50021964A0191F03A1144D1F8F010B2
:1002B0000091491C11D0DDE90013C15400990B0ACB
:1002C000019901444B70009B1B0C8B70009B1B0E13
:1002D000CB700199091D0191E7E70CBD2DE9F041B3
:1002E00006460D46901B73EB050003D2B01A65EB72
:1002F000030102E0901B63EB05010C466FF0004127
:10030000D0F1FF37A14101D2AFF30080911BAB4187
:1003100002D22146BDE8F0810021404261EB040198
:10032000F8E778A007F0A0F9FBE730B58FB02821F7
:10033000684606F015FB14210AA806F011FB0121FE
:100340000804CDE900100024029402250491CDE9AF
:1003500007504FF4E0100990684603F00EFA60B9B8
:100360000F20CDE90A056802CDE90C4002210AA858
:100370000E9403F04AFC002801D0FFF7D2FF0FB023
:1003800030BD90B003F0C6F8FFF7CFFF00F0DCF807
:1003900000F068F900F008F9DFF87C814046016858
:1003A0008906FCD553490A23322215315B4805F0F2
:1003B000D2FC642003F0EAF84E4859A1153006F04B
:1003C000F7FA01464B48473006F0E8FA54A10020FE
:1003D00006F0EEFA014647485B3006F0DFFA50A11E
:1003E000002006F0E5FA014642486A3006F0D6FAE7
:1003F0004BA1002006F0DCFA01463E48793006F0B9
:10040000CDFA3C48473007F0C1FD06F080FC454C72
:1004100005464549206106F045FB0646E16806F0C1
:100420003BFB20F00040616806F0E4FA606007469C
:100430002846A16806F030FB20F00040216806F055
:100440002EFB2060C4E90256384606F04DFC0246F9
:100450000B4636A10BA807F017F9206806F044FCFC
:1004600002460B4633A106A807F00EF921481421D5
:10047000473006F075FA1F4806AA30A1473007F04A
:1004800003F91C484730FFF798FE1A4814214730FB
:1004900006F066FA142101A806F062FA01A8FFF737
:1004A000FFFE642003F072F825A101A806F063FAAC
:1004B000104824A15B3006F05EFA0E4821A16A3094
:1004C00006F059FA0B481FA1793006F054FA094B8F
:1004D0000BA87933A3F10F020090A2F10F0101A83C
:1004E00000F062F9642003F051F8642003F04EF844
:1004F00054E7000080010020256325730000000000
:10050000F09000085F4572726F725F48616E646CB4
:1005100065720D0A000000000038014060020020F2
:10052000200000000000002000007A44252E3366E1
:1005300000000000252E3566000000002573000035
:10054000250000004742000030B585B00024144863
:100550000094019402940394816941F00401816143
:100560008069104D00F004000490224616212846B0
:1005700003F087FE162000900120CDE9010402203F
:1005800003906946284603F0CFFC0820CDE900041B
:1005900069462846029403F0C7FC05B030BD000050
:1005A00000100240000801402B4810B529490160A5
:1005B0004FF48271416000218160C1604FF400728C
:1005C0000161C0E905122822C0E907214162816268
:1005D0000A21C16201F08DFC002803D0BDE8104063
:1005E000FFF79FBE10BD00B585B0002100910191BD
:1005F000029103910068174988421AD1174881690E
:1006000041F480518161816901F4805104918169D3
:1006100041F0040181618069694600F004000490A2
:10062000A020009002200190032003900C4803F0CA
:100630007BFC05B000BD00680649884208D1074828
:10064000816921F480518161A021054803F072BDC8
:1006500070470000003001400802002000100240F6
:1006600000080140324810B5304901604FF4E131D3
:100670004160002181600C22C160C0E904128161E7
:10068000C16105F0B9F9002803D0BDE81040FFF7BB
:1006900048BE10BD30B585B000240094019402948A
:1006A000039400682149884224D12248816941F499
:1006B00080418161816901F480410491816941F047
:1006C0000401816180691C4D00F0040004904FF426
:1006D0000070009002200190032003906946284694
:1006E00003F022FC2815CDE900046946284602944F
:1006F00003F01AFC05B030BD00680C49884209D1EE
:100700000C48816921F4804181614FF4C0610A483D
:1007100003F010BD704713B54FF6FF730122694611
:10072000034805F0B3FA00981CBD000000380140F2
:10073000600200200010024000080140704706A03F
:1007400006F092FFFEE7FEE7FEE7FEE77047704720
:10075000704702F0FDBE0000486172644661756C2E
:10076000745F48616E646C65720000000C4808B5E7
:10077000816941F001018161816901F0010100910C
:10078000C16941F08051C161C06900F080500090A2
:100790000448416821F0E06141F00071416008BD0A
:1007A00000100240000001402DE9FC5F074698461A
:1007B0009346894650A0DDF830A006F055FF00F0C2
:1007C00030FB54A006F050FF00F082F900F01BFA55
:1007D0004FF4FA7002F0DAFE41F2883007F014FCB0
:1007E00006007AD052A006F03FFFFF24C8224FF443
:1007F000877311463046009400F03EFB51A006F08E
:1008000033FF304600F054FBFF2000F028FC0025A9
:100810004F4B50A229460520CDE9004500F0DFFFEF
:100820004B4B524614210520CDE9004500F0D7FF7F
:10083000474B4BA228210520CDE9004500F0CFFF12
:10084000434B3A463C210520CDE9004500F0C7FF67
:100850003F4B47A250210520CDE9004500F0BFFFE6
:100860003B4B4A4664210520CDE9004500F0B7FF27
:10087000374B42A278210520CDE9004500F0AFFFBB
:10088000334B5A468C210520CDE9004500F0A7FFE7
:100890002F4B3DA2A0210520CDE9004500F09FFF90
:1008A0002B4B4246B4210520CDE9004500F097FFCF
:1008B000304600F0D0F94FF4FA6002F067FE36A03F
:1008C00006F0D2FE00F004F936A006F0CDFE00F0EE
:1008D0002BFA304607F070FB00E007E035A006F089
:1008E000C3FE00F0B1FA0020BDE8FC9F3EA006F078
:1008F000BBFE4FF0FF30F7E74550445F31696E357E
:10090000345F56325F746573742044656D6F0D0AF1
:1009100000000000652D506170657220496E697499
:1009200020616E6420436C6561722E2E2E0D0A00CC
:100930005061696E745F4E6577496D6167650D0A38
:100940000000000044726177696E670D0A000000C4
:10095000540100204F7665727772697465733A00AE
:1009600052656C696162696C6974792C253A000082
:10097000467265652053706163653A00557365641E
:100980002053706163653A00546F74616C2053703A
:100990006163653A00000000436C6561722E2E2E83
:1009A0000D0A0000476F746F20536C6565702E2E22
:1009B0002E0D0A00636C6F73652035562C204D6F29
:1009C00064756C6520656E74657273203020706F7D
:1009D00077657220636F6E73756D7074696F6E20CA
:1009E0002E2E2E0D0A0000004661696C656420748D
:1009F0006F206170706C7920666F7220626C616329
:100A00006B206D656D6F72792E2E2E0D0A00000021
:100A100010B5EF4C01220221204603F032FCC82021
:100A200002F0B4FD00220221204603F02AFC02203D
:100A300002F0ACFD01220221204603F022FCBDE8B9
:100A40001040C82002F0A2BD10B5E2A006F00CFED6
:100A5000DF4C02E00A2002F099FD0821204603F055
:100A600009FC0128F6D0BDE81040E0A006F0FCBD6E
:100A700070B50446322000F063F90025605D00F097
:100A800076F96D1CEDB2992DF8D3FFF7DDFF3F200D
:100A900000F056F914F8990F00F069F9032000F0FE
:100AA0004FF9607800F063F9042000F049F9A0786C
:100AB00000F05DF9E07800F05AF9207900F057F97C
:100AC0002C2000F03DF96079BDE8704000F04FB98E
:100AD00010B5FFF79DFFFFF7B7FF122000F030F9C8
:100AE000FFF7B2FF012000F02BF9C72000F03FF91B
:100AF000002000F03CF9012000F039F9112000F04D
:100B00001FF9012000F033F9442000F019F9002406
:100B1000204600F02CF9182000F029F9452000F0BB
:100B20000FF9C72000F023F9204600F020F92046F5
:100B300000F01DF9204600F01AF93C2000F000F901
:100B4000012000F014F9182000F0FAF8802000F0DD
:100B50000EF9222000F0F4F8B12000F008F920206E
:100B600000F0EEF84E2000F0EBF8204600F0FFF821
:100B70004F2000F0E5F8C72000F0F9F8204600F01B
:100B8000F6F8FFF761FFBDE81040A04870E710B528
:100B9000FFF73EFFFFF758FF9C489F30FFF768FFC5
:100BA000372000F0CDF8002000F0E1F8002000F040
:100BB000DEF8002000F0DBF8002000F0D8F800207C
:100BC00000F0D5F8402000F0D2F8002000F0CFF877
:100BD000002000F0CCF8002000F0C9F8002000F060
:100BE000C6F83C2000F0ACF8802000F0C0F82220CD
:100BF00000F0A6F8C02000F0BAF8202000F0A0F81D
:100C0000BDE8104020E72DE9F0411925C826242031
:100C100000F096F800270024FF2000F0A8F8641CDC
:100C2000A4B2AC42F8D37F1CBFB2B742F3D32620A4
:100C300000F086F800270024FF2000F098F8641CDC
:100C4000A4B2AC42F8D37F1CBFB2B742F3D3BDE825
:100C5000F04100F0A3B82DE9F04180461926C827DD
:100C6000242000F06DF800255FF0000405FB06402D
:100C700018F8000000F07BF8641CA4B2B442F5D36D
:100C80006D1CADB2BD42EFD3BDE8F04100F086B8B7
:100C90002DE9F041064619254FF0C808242000F040
:100CA0004FF800275FF0000407FB0540305C00F0C0
:100CB0005EF8641CA4B2AC42F6D37F1CBFB24745B9
:100CC000F0D3262000F03CF80027002407FB054065
:100CD000305C00F04CF8641CA4B2AC42F6D37F1C2C
:100CE000BFB24745F1D3BDE8F04100F064B82DE94B
:100CF000F04180461926C827242000F021F800255D
:100D00005FF0000405FB064018F8000000F02FF823
:100D1000641CA4B2B442F5D36D1CADB2BD42EFD396
:100D2000BDE8F04100F047B810B5102000F008F819
:100D3000012000F01CF8BDE81040642002F026BC41
:100D400070B5234C054600220421204603F099FA91
:100D500000221021204603F094FA284600F058F8AB
:100D60002046BDE870400122102103F08ABA70B518
:100D7000174C054601220421204603F082FA002286
:100D80001021204603F07DFA284600F041F8204665
:100D9000BDE870400122102103F073BA10B5222083
:100DA000FFF7CEFFC720FFF7E2FF2020FFF7C8FFC5
:100DB000BDE8104048E610B52220FFF7C1FFCF2064
:100DC000FFF7D5FF2020FFF7BBFFBDE810403BE653
:100DD0000008014044656275673A20652D506170D6
:100DE000657220627573790D0A00000044656275B2
:100DF000673A20652D5061706572206275737920A5
:100E000072656C656173650D0A00000014000020B6
:100E100001B54FF47A7301226946154801F057F97C
:100E200008BD10B5134C00220421204603F029FA16
:100E300000221021204603F024FA0122022120463C
:100E400003F01FFA002010BD10B50A4C0022042147
:100E5000204603F016FA00221021204603F011FA72
:100E600020460022BDE81040022103F00ABA00002B
:100E7000080200200008014070B5FF4C049E0025C8
:100E8000206021816281A6810220E0824E074FEA24
:100E9000D10000D0401C6082A282E381258223B170
:100EA000B42B02D0A280E18070BDA180E28070BD31
:100EB000F1490860704710B504000BD05A2C09D0D6
:100EC000B42C07D0B4F5877F04D0BDE81040EBA068
:100ED00006F0CABB0146F2A006F0C6FBE648C48194
:100EE00010BDE54910B50A8902280BD0042811D09D
:100EF000072815D0F2A006F0B7FBBDE81040FBA014
:100F000006F0B2BBC882DC4852070089C0080CE07A
:100F1000488210BDC882D84892070089800804E042
:100F2000C882D548D20700894008002AF0D0401C6A
:100F3000EEE710B504000AD0012C08D0022C06D030
:100F4000032C04D0BDE81040F14806F08DBB6008CA
:100F5000C00701D0EFA200E0F0A2E00701D0EDA1B0
:100F600000E0EEA1EFA006F07FFBC348048210BDB5
:100F7000F0B4C14CA388834234D3E3888B4231D38D
:100F80002346E7891E895D89CFB15A2F1AD0B42F25
:100F90001CD0B7F5877F40D10B46281A401E80B27F
:100FA000218AD9B1012916D0022904D0032934D1CC
:100FB000F11A491E8BB2281A401E80B20EE0034679
:100FC0000846EDE7711A491E8BB2E9E7301A401E58
:100FD00083B2681AE2E7F11A491E8BB29E4201D32E
:100FE000854203D2F0BCD8A006F03EBBA249E58AF8
:100FF0004C8A0968022D12D0042D21D0072D0CD166
:10100000444304EB5304DB075B0FF025DD40085D30
:101010001201A843DA4002430A55F0BC704744432A
:1010200004EBD3048020002A0D5D03F0070220FAB0
:1010300002F002D028430855EFE785430D55ECE751
:10104000444304EB930094079B075D0F0A5CC023A5
:10105000EB409A43230EEB4013430B54DDE730B5CE
:101060008549CA8A022A08D0042A1AD0072A17D129
:1010700040EA00100022C3B23BE00022C3B20CE001
:10108000002005E002FB04040D68401C80B22B55D3
:101090004C8A8442F6D8521C92B2888A9042EFD889
:1010A00030BD830143EA0013002243EA8003034377
:1010B000DBB20CE0002005E002FB04040D68401CDC
:1010C00080B22B554C8A8442F6D8521C92B2888A40
:1010D0009042EFD830BD002006E000BF02FB0404C0
:1010E0000D68401C80B22B554C8A8442F6D8521CA5
:1010F00092B2888A9042EED830BD2DE9F0471F4663
:1011000016460D468046DDF820900CE0444606E089
:101110004A4629462046FFF72BFF641CA4B2B4427E
:10112000F6D36D1CADB2BD42F0D3BDE8F0872DE91A
:10113000F05F514D93468146AA880A981C4688461E
:101140004A4502D3EA8842450ED289A006F08CFABD
:10115000AA88494696A006F087FAEA884146BDE883
:10116000F05F9CA006F080BA012801D0002635E08F
:101170000025681E00EB440719E009EB0500002676
:10118000A0EB040A0FE000BFBAF1000F0DD408EB8A
:101190000600001B09D481B21FFA8AF05A46FFF7F5
:1011A000E7FE761C36B2B742EEDC6D1C2DB2AF42C4
:1011B000E3DCBDE8F09F002509EB06077F1E09E090
:1011C00008EB0500401E81B2B8B25A46FFF7D0FEC8
:1011D0006D1C2DB2A542F3DB761C36B2A642EADBCB
:1011E000E7E72DE9FE4F1D46234B16469A888242BB
:1011F00006D3DB888B4203D3B24201D3AB4204D285
:10120000BDE8FE4F7DA006F02FBA83468A46321A0B
:1012100000D5821B91466A1A002A00DD4A1B9046BF
:101220004FF0FF32B34501D2012000E0104602909A
:10123000AA4500D2012209EB0804002701927F1C75
:101240000E98FFB2012805D10320B7FBF0F100FB97
:10125000117068B10120DDE90C2300905146584619
:10126000FFF765FFB8EB440F03DCB34502D0E5E0C0
:10127000F6E0E9E0FEE00000A002002044656275AF
:10128000673A20726F74617465203D20302C2039DC
:10129000302C203138302C203237300D0A0000003D
:1012A00044656275673A2053657420696D616765AE
:1012B00020526F746174652025640D0A00000000DF
:1012C00044656275673A20536574205363616C65A9
:1012D00020496E70757420706172616D65746572FD
:1012E000206572726F720D0A00000000446562751D
:1012F000673A205363616C65204F6E6C792073757B
:1013000070706F72743A2032203420370D0A00005A
:10131000A48F00086D6972726F7200006E6F6E6547
:101320000000000044656275673A206D6972726F53
:101330007220696D61676520783A25732C20793AAF
:1013400025730D0A0000000044656275673A204568
:101350007863656564696E6720646973706C617930
:1013600020626F756E6461726965730D0A0000001A
:1013700044656275673A205061696E745F447261BA
:1013800077506F696E7420496E707574206578634C
:101390006565647320746865206E6F726D616C2082
:1013A000646973706C61792072616E67650D0A0003
:1013B00058706F696E74203D202564202C20506188
:1013C000696E742E5769647468203D20256420205E
:1013D0000D0A200059706F696E74203D202564202D
:1013E0002C205061696E742E486569676874203DD1
:1013F00020256420200D0A2000000000446562754D
:10140000673A205061696E745F447261774C696E0F
:101410006520496E70757420657863656564732016
:10142000746865206E6F726D616C20646973706C96
:1014300061792072616E67650D0A0000029944446B
:101440000BEB01001FFA80FBB9EB440FFFF6F7AE80
:10145000AA450FD001984C4450441FFA80FAEEE69A
:1014600001200090FF22514658460D9BFFF75FFE7A
:101470000027F7E6BDE8FE8F2DE9FE4F8246FC48C7
:1014800091460C46DDE90D5281880C9E1F46514560
:1014900006D3C088A04203D3494501D3B84204D241
:1014A000BDE8FE4FF3A006F0DFB80020804662B929
:1014B0000EE0CDE9006523464A4619465046CDF870
:1014C0000880FFF78EFE641CA4B2BC42F1D3D1E7C2
:1014D000CDE9006523464A4619465046CDF80880B6
:1014E000FFF77FFECDE9006552463B462146104698
:1014F000CDF80880FFF775FECDE900654A46234622
:1015000039461046CDF80880FFF76BFECDE900653F
:101510003B46524619464846CDF80880FFF761FE23
:10152000A8E72DE9FF4F8046D14885B00F46848853
:101530001399444502D3C088B84205D809B0D948A8
:10154000BDE8F04F06F090B803200024A0EB420065
:1015500015B20FFA80FA012978D0E7E0264660E05C
:101560004FF0010908EB040007EB060B02901FFA8D
:101570008BF1CDF8009080B24B46089AFFF7D7FD6B
:10158000A8EB040004901FFA8BF1CDF8009080B214
:101590000123089AFFF7CBFD3819CDE9009081B2FD
:1015A000A8EB060B1FFA8BF00123089AFFF7BFFD8B
:1015B000381B039081B2CDF800901FFA8BF0012305
:1015C000089AFFF7B4FD0498A7EB060B1FFA8BF1FE
:1015D000CDF8009080B20123089AFFF7A8FD029889
:1015E0001FFA8BF1CDF8009080B20123089AFFF723
:1015F0009EFD039808EB060B81B2CDF800901FFA10
:101600008BF00123089AFFF792FD0198CDF8009026
:1016100081B21FFA8BF00123089AFFF788FD761C30
:1016200036B2AE429CDDBAF1000F05DA0AEB840057
:10163000801D0FFA80FA07E0611B0AEB81000A3077
:101640006D1E0FFA80FA2DB2641C24B2AC4285DD07
:1016500009B0BDE8F08F08EB0400012607EB05098F
:1016600002901FFA89F1009680B2129B089AFFF748
:101670005EFDA8EB040003901FFA89F1009680B28A
:10168000129B089AFFF753FD3819CDE9006081B22B
:10169000A8EB05091FFA89F0129B089AFFF747FD8E
:1016A000A7EB040B1FFA8BF11FFA89F00096129B2F
:1016B000089AFFF73CFD0398A7EB05091FFA89F18B
:1016C000009680B2129B089AFFF731FD02981FFA2C
:1016D00089F1009680B2129B089AFFF728FD08EB6B
:1016E00005091FFA8BF11FFA89F00096129B089AE0
:1016F000FFF71DFD0198009681B21FFA89F0129B39
:10170000089AFFF714FDBAF1000F05DA0AEB84001E
:10171000801D0FFA80FA07E0611B0AEB81000A3096
:101720006D1E0FFA80FA2DB2641C24B2AC4292DD19
:101730008EE72DE9F05F81464D481E46DDF82CB05E
:10174000838888464B4502D3C188414504D2BDE811
:10175000F05F55A005F088BFB088410700D0012197
:1017600001EBD000203AF1885043484331684FF0F4
:10177000800A0F1800252EE0002423E0BBF1FF0FA4
:101780003A7804F007012AFA01F002EA000201D0D7
:101790000AB908E082B108EB050081B209EB040048
:1017A00080B20A9A06E008EB050081B209EB04005A
:1017B00080B25A46FFF7DCFBE043400700D17F1CB4
:1017C000641CA4B2B088A042D8D83079400700D0B9
:1017D0007F1C6D1CADB2F088A842CDD8E9E42DE99C
:1017E000FC5F8046224889460D4681884446DDF8E4
:1017F00034B01E461746A14203D3C1888246A9428F
:1018000022D2BDE8FC5F384805F02EBFB088BAF898
:1018100004300119994203D9F188444629448DB214
:10182000F188BAF806002944814201D944464D4660
:101830000C983346CDE900B029462046FFF779FFE2
:10184000B0887F1C204484B23A78002ADED1BDE8FB
:10185000FC9F2DE9F05F1D46904606468A46DDF85E
:101860002CB0F3E07F294FF000006ED8AA888AE000
:10187000A002002044656275673A20496E70757455
:10188000206578636565647320746865206E6F7287
:101890006D616C20646973706C61792072616E6730
:1018A000650D0A004C90000844656275673A205047
:1018B00061696E745F447261774368617220496E3A
:1018C000707574206578636565647320746865203D
:1018D0006E6F726D616C20646973706C61792072D7
:1018E000616E67650D0A00000890000853232C689C
:1018F000434314F813308B4244D15321484302210F
:1019000001EB400004EB0009002737E000242CE045
:101910004FEAE47004EB507020F00700A4EB0002E3
:10192000BBF1FF0F99F800104FF0800020FA02F091
:1019300001EA000101D009B908E079B10AEB07001A
:1019400081B2301980B20A9A06E022E00AEB070061
:1019500081B2301980B25A46FFF70AFBFA4820409C
:10196000072801D109F10109641C2889A042CFDCB4
:10197000287A400701D009F101097F1C6889B84223
:10198000C4DC02E0401C8242B0DC08F10108E888B7
:101990005BE00127AB8853E053222C68424314F8E4
:1019A00012C08C454BD107EB4202A45C98F8012091
:1019B000944244D1532250430222296802EB400052
:1019C00001EB0009002736E000242BE04FEAE47029
:1019D00004EB507020F00700A4EB0002BBF1FF0FF6
:1019E00099F800104FF0800020FA02F001EA00019F
:1019F00001D009B907E071B10AEB070081B23019D3
:101A000080B20A9A05E00AEB070081B2301980B271
:101A10005A46FFF7ADFACC482040072801D109F11A
:101A20000109641C2889A042D0DC287A400701D033
:101A300009F101097F1C6889B842C5DC02E0401C3D
:101A40008342A9DC288908F10208064498F80010AE
:101A500000297FF407AFC1E62DE9FF4FADF5037D07
:101A60008846DDE990AB814600244FF48077154627
:101A70002646394642A804F073FF394602A804F00E
:101A80006FFFB24842AA83884B4502D3C1884145C3
:101A900005D2AFA005F0E8FD0DF5077DD9E50A21D7
:101AA0000DF1080095FBF1F301FB135395FBF1F5E4
:101AB00030330355641C24B2002DF3D11146002CA1
:101AC00008DD031913F8013C8B55761C641E36B2F1
:101AD00024B2F4E7CDE900BA41464846869BFFF7B9
:101AE0007EFED9E72DE9FF5FADF5067D00244FF4BA
:101AF0008079164698462546494642A8959F04F0A7
:101B00002FFF494602A804F02BFF42A883903046DD
:101B1000414605F0CAF88D49869A83468B889342E0
:101B200003D3CA8887998A4205D289A005F09CFD13
:101B30000DF50A7D52E64FF00A090DF1080A67B368
:101B400005F089F83246434605F082F805F0DFF8E3
:101B5000FEB2DFF83C8204E0414604F0A3FF761EAB
:101B6000F6B2002EF8D105F087F8F9B24A4653468E
:101B70000CE000BF90FBF2F602FB1606303690FB3D
:101B8000F2F01E55641C491E24B2C9B20029F1D1DD
:101B90002E200AF80400641C24B258464A465146D6
:101BA00090FBF2F302FB130390FBF2F030330B5582
:101BB000641C24B20028F3D142A8002C08DD0A19C5
:101BC00012F8012C42556D1C641E2DB224B2F4E7AC
:101BD000DDE99610CDE90001DDE98601949B839A49
:101BE000FFF7FDFDA4E72DE9FF4F85B069A117467A
:101BF0008046DDE9126507C902AB4FF00A0983E8A8
:101C0000070039790898B1FBF9F19A4684881AF8E7
:101C10000120CDE900564046089B0699FFF789FD53
:101C2000397908EB040BB1FBF9F209FB12111FFA29
:101C30008BF01AF80120CDE90056089B0699FFF7B2
:101C400078FDCDE900560BEB940000EB540080B218
:101C50003A22089B0699FFF76CFD797908EB44005E
:101C6000B1FBF9F100EB54001AF80120CDE9005660
:101C700080B2089B0699FFF75CFD797904EB440B71
:101C8000B1FBF9F209FB12110BEB08001AF8012065
:101C9000CDE9005600EB540080B2089B0699FFF78F
:101CA00048FD08EB8400CDE9005600EB5400A0EBA2
:101CB000940080B23A22089B0699FFF73AFDB97961
:101CC000089BB1FBF9F11AF8012004EB8401CDE97E
:101CD000005601EB080080B20699FFF72AFDBA7999
:101CE00008EB4B00B2FBF9F109FB112180B21AF8A5
:101CF0000120CDE90056089B0699FFF71AFDA7E4DD
:101D000070B50022114B0DE0002106E002FB041427
:101D10001E68055D491C355589B25C8A8C42F5D830
:101D2000521C92B2998A9142EED870BD2DE9FF5FA4
:101D30008B46DDF838A01E4659074FEAD30000D085
:101D4000401C8146002450E007000080A0020020D3
:101D500044656275673A205061696E745F446973C7
:101D60004E756D20496E7075742065786365656485
:101D70007320746865206E6F726D616C2064697386
:101D8000706C61792072616E67650D0A0000000059
:101D900000002041303132333435363738390000D5
:101DA0000298002504FB09F704EB000819E00098ED
:101DB0000F9900EBD5000029385C05F0070100FA07
:101DC00001F003D040F3C012521C01E0C0F3C01276
:101DD00005EB0B001FFA88F180B2FFF7C9F86D1C04
:101DE000ADB2B542E3D3641CA4B25445D8D3BDE828
:101DF000FF9FF0B500230C4A491E11E000240AE0C1
:101E0000978A03FB05466F434F438519641C7D5D2C
:101E10001768A4B2BD55558AA542F1D85B1C9BB288
:101E2000948A9C42EAD8F0BDA002002029480168AB
:101E300041F0010101604168274A11404160016899
:101E400021F4102121F080710160016821F48021CA
:101E50000160416821F4FE0141604FF41F0181607F
:101E60001E49C003086070471A4B586800F00C0008
:101E70001B4A1C4900280ED004280ED008280ED07A
:101E80000A605868184AC0F30310105C0A6822FA06
:101E900000F0086070470A60F3E70A60F1E75868ED
:101EA00000F470105A6802F480324FF0020C0CEB10
:101EB00090403AB15A6812F4003F07D00B4A5043A1
:101EC0000860DEE7094A50430860DAE7044A5043F5
:101ED0000860D6E7001002400000FFF808ED00E0BF
:101EE00000127A005C0100204C8F000800093D00C0
:101EF000704770B50446002C09D0606A002540B1D7
:101F000025616561A56294F8510040B10CE00120A3
:101F100070BD6068B0F5827FF4D0E561F2E784F8C7
:101F200050502046FEF75FFB022084F851002068E5
:101F3000016821F040010160A088218900F48270CD
:101F400001F404410843A18901F400610843217CA4
:101F500001F002010843217D01F001010843218BBA
:101F600001F400710843217F01F03801084394F81F
:101F7000201001F080010843218D01F40051084335
:101F800021680860A169042000EA114021684860C6
:101F90002068C16921F40061C1616565012084F890
:101FA0005100002070BD704710B50446002C11D0C0
:101FB000022084F851002068016821F0400101608E
:101FC0002046FEF738FB0020606584F8510084F855
:101FD000500010BD012010BD2DE9F84304460F4606
:101FE00090469946089D01F0B9FA401BA9EB0005FF
:101FF00001F0B4FA0646FE480068C0F3CB306843EF
:1020000000902068806837EA00000ED0002040452C
:1020100046D0B9F1FF3F3BD001F0A0FA801BA842A7
:1020200005D225B1009870B32FE00120EFE72068BA
:10203000416821F0E00141606068B0F5827F0BD11A
:10204000A068B0F5004F02D0B0F5806F04D12068D1
:10205000016821F040010160A06AB0F5005F09D17C
:102060002068016821F4005101602068016841F492
:1020700000510160012084F85100002084F85000D4
:102080000320BDE8F883FFE700250098401E00907C
:102090002068806837EA000005D000204045B8D1AC
:1020A0000020BDE8F8830120F8E738B504460B4668
:1020B0000092002280212046FFF78EFF28B1606D3C
:1020C00040F020006065032038BD002038BD2DE9B8
:1020D000F84F04468B4692461D46002694F8500061
:1020E00001280DD04FF0010984F8509001F036FA24
:1020F000074694F85100B046012804D00226ADE00E
:102100000220BDE8F88FBBF1000F1CD05FEA0A0087
:1021100019D0032084F85100C4F85480C4F830B0BA
:10212000A4F834A0A4F836A0C4F83880A4F83C8001
:10213000A4F83E80C4F84480C4F84080A068B0F59C
:10214000004F02D00BE0012688E02068016821F0F2
:10215000400101602068016841F48041016020680D
:10216000016811F0400F03D1016841F040010160A6
:10217000E068B0F5006F05D0606888B3BAF1010F70
:1021800031D03AE0606810B1BAF1010F09D1206B8B
:1021900021680088C860206B801C2063E08E401E90
:1021A000E086E08E002845D02068816811F0020F9B
:1021B00009D0216B0988C160206B801C2063E08EF0
:1021C000401EE08608E001F0C9F9C01BA84202D316
:1021D000B5F1FF3F05D125B1E08E0028E4D129E01B
:1021E00001E003263AE0206B216800780873206B39
:1021F000401C2063E08E401EE086E08ED0B1206857
:10220000816811F0020F09D0216B09780173206BEE
:10221000401C2063E08E401EE08608E001F09EF93D
:10222000C01BA84202D3B5F1FF3F0ED16DB1E08EC5
:102230000028E4D13A4629462046FFF736FF08B188
:1022400020206065A06810B105E0032606E0206844
:10225000C16880680090606D00B1012684F85190DB
:1022600084F850803046BDE8F88F38B50446606881
:10227000B0F5827F0BD1A068B0F5004F02D0B0F569
:10228000806F04D12068036823F040030360606816
:10229000B0F5827F03D1A068B0F5806F0DD00B46FA
:1022A0000092002280212046FFF796FE98B1606DD3
:1022B00040F020006065032038BD0B4600920022EC
:1022C00001212046FFF788FE28B1606D40F0200014
:1022D0006065032038BD002038BD2DE9F84F044665
:1022E0000A9E8A4693461F4601254FF0000894F83F
:1022F000500001280ED0012084F8500001F02EF982
:10230000814694F85100616801280ED0B1F5827FB2
:1023100007D102E00220BDE8F88FA16809B90428BE
:1023200003D04FF0020800F0CEB8BAF1000F1DD074
:10233000BBF1000F1AD0380018D094F851000428CF
:1023400002D0052084F8510000206065C4F838B040
:10235000E787A787C4F830A0E786A7862064606473
:102360002068016811F0400F03D006E04FF001082B
:10237000A9E0016841F040010160E068B0F5006F3C
:1023800005D0606800284BD0012F49D081E06068FB
:1023900008B1012F3DD1206B21680088C860206BF7
:1023A000801C2063E08E401EE08632E02068816859
:1023B00011F0020F0DD0E18E59B1012D09D1216B21
:1023C0000988C160206B801C2063E08E401EE0867F
:1023D00000252068816811F0010F0ED0E18F61B1F6
:1023E000C068A16B0880A06B801CA063E08F01E037
:1023F0005C010020401EE087012501F0AFF8A0EB52
:102400000900B04205D3B6F1FF3F02D04FF00308F8
:1024100059E0E08E0028C9D1E08F0028C6D13EE007
:10242000206B216800780873206B401C2063E08ECD
:10243000401EE0862DE02068816811F0020F0DD06B
:10244000E18E59B1012D09D1216B09780173206BFF
:10245000401C2063E08E401EE086002520688168D5
:1024600011F0010F0BD0E18F49B1C068A16B08706A
:10247000A06B401CA063E08F401EE087012501F0A7
:102480006DF8A0EB0900B04202D3B6F1FF3F11D1C5
:1024900086B1E08E0028CED1E08F0028CBD14A460D
:1024A00031462046FFF701FE38B14FF001082020E9
:1024B000606508E04FF0030805E0A06818B92068DF
:1024C000C16880680090012084F85100002084F8E1
:1024D00050004046BDE8F88F2DE9F84F04468A4683
:1024E00091461D46002660684FF0040BB0F5827FD0
:1024F00001D1A06888B194F85000012818D00120BB
:1025000084F8500001F02AF8074694F851004FF083
:10251000000801280FD002268BE084F851B04B460A
:102520005246514620460095FFF7D7FEBDE8F88F8A
:102530000220BDE8F88FBAF1000F1BD0B9F1000FEF
:1025400018D084F851B0C4F85480C4F838A0A4F866
:102550003C90A4F83E90C4F83080A4F83480A4F8ED
:102560003680C4F84080C4F84480A068B0F5004FBD
:1025700002D00BE001265CE02068016821F04001F8
:1025800001602068016821F48041016020680168D1
:1025900011F0400F03D1016841F040010160E06893
:1025A00080B1E08F58B32068816811F0010F29D005
:1025B000C068A16B0880A06B801CA063E08F401EE8
:1025C000E08728E0E08FD0B12068816811F0010F2A
:1025D00009D0007BA16B0870A06B401CA063E08F4A
:1025E000401EE08708E000F0B9FFC01BA84202D3FC
:1025F000B5F1FF3F04D11DB1E08F0028E4D10DE01B
:10260000032616E000F0AAFFC01BA84202D3B5F1D2
:10261000FF3F16D1ADB1E08F0028C4D13A4629461C
:102620002046FFF722FE08B120206065606D00B1F2
:102630000126012084F8510084F850803046BDE81E
:10264000F88F0326F5E77047704710B582B004464F
:10265000F64845F6C0510068B0FBF1F064214843EC
:10266000019000F07BFF024620680199B1B1019909
:10267000491E0191816811F0020FF6D0416821F0E6
:10268000A001416064212046FFF70FFD18B1606D85
:1026900040F020006065A06828B108E0616D41F05D
:1026A00020016165EAE72068C16880680090012028
:1026B00084F85100606D20B12046FFF7C5FF02B0DD
:1026C00010BD2046FFF7BFFF02B010BD016B0268CE
:1026D00009781173016B491C0163C18E491EC186C3
:1026E000C18E002900D1B0E77047016B02680988EC
:1026F000D160016B891C0163C18E491EC186C18EE8
:10270000002900D1A1E7704710B4002390F850C011
:10271000BCF1010F0CD04FF0010C80F850C09C466A
:1027200049B142B190F85140012C06D0022337E064
:1027300010BC02207047012332E0032480F851408E
:10274000C0F854C001638286C286C0F838C0A0F8C1
:102750003CC0A0F83EC0C0F840C0C16811B1B44947
:10276000416401E0B34941648168B1F5004F09D18A
:1027700001680A6822F040020A6001680A6842F4AF
:1027800080420A6001684A6842F0A0024A6001681B
:102790000A6812F0400F03D10A6842F040020A6052
:1027A00080F850C010BC18467047704738B50446D2
:1027B0002068416821F06001416000F0CFFE0246D0
:1027C00064212046FFF751FD18B1606D40F02000F4
:1027D0006065A06818B92068C16880680090012011
:1027E00084F85100606D18B12046FFF72DFF38BD09
:1027F0002046FFF7DAFF38BD0168097B826B117054
:10280000816B491C8163C18F491EC187C18F00291B
:1028100000D1CBE770470168C968826B1180816B7A
:10282000891C8163C18F491EC187C18F002900D1D6
:10283000BCE77047704710B582B004467B4845F648
:10284000C0510068B0FBF1F064214843019000F0F2
:1028500085FE02462068416821F020014160019810
:1028600098B10198401E01902068806810F0020F16
:10287000F5D064212046FFF718FC18B1606D40F0D8
:1028800020006065A06828B108E0606D40F020007D
:102890006065EEE72068C16880680090616D012086
:1028A00031B184F851002046FFF7CEFE02B010BDD2
:1028B00094F85110042906D084F851002046FFF7FF
:1028C000B9FF02B010BD84F851002046FFF76DFF3C
:1028D00002B010BD016B026809781173016B491CCD
:1028E0000163C18E491EC186C18E002908D10168CD
:1028F0004A6822F080024A60C18F002900D19AE71D
:1029000070470168097B826B1170816B491C816380
:10291000C18F491EC187C18F002908D101684A684B
:1029200022F060024A60C18E002900D183E770471F
:10293000016B02680988D160016B891C0163C18E3B
:10294000491EC186C18E002908D101684A6822F05B
:1029500080024A60C18F002900D16CE7704701688E
:10296000C968826B1180816B891C8163C18F491E8C
:10297000C187C18F002908D101684A6822F040024E
:102980004A60C18E002900D155E7704770B44FF0FE
:10299000000C90F85040012C0CD0012480F85040DD
:1029A00090F8514045680026012C0DD0B5F5827F86
:1029B00007D102E070BC0220704785680DB9042C75
:1029C00002D04FF0020C2CE0B1B1AAB1A3B190F843
:1029D0005140042C02D0052480F851404665016323
:1029E0008386C38682638387C387C16839B11249EE
:1029F00001641249416406E04FF0010C11E01049F6
:102A000001641049416401684A6842F0E0024A608A
:102A100001680A6812F0400F03D10A6842F04002D0
:102A20000A6080F8506070BC604670475C0100200E
:102A3000EB260008CD2600085F2900083129000890
:102A400003290008D528000870B40023D0F808C076
:102A50000425BCF1000F03D14468B4F5827F0DD08A
:102A600090F85040012C0FD0012480F8504090F88D
:102A700051600024012E0AD0022338E080F8515022
:102A800070BC13460A4681E770BC0220704779B1DA
:102A900072B180F85150446581638287C2870463B4
:102AA0008486C4864464C16821B1FE49016403E0A0
:102AB00001231CE0FC490164BCF5004F09D1016809
:102AC0000A6822F040020A6001680A6822F4804223
:102AD0000A6001684A6842F060024A6001680A6858
:102AE00012F0400F03D10A6842F040020A6080F8F9
:102AF000504070BC1846704710B5406A01684A687B
:102B000022F003024A60416D41F01001416501214C
:102B100080F85110FFF798FD10BD38B505466C6A76
:102B200000F01CFD02462868006810F0200F23D139
:102B30002068416821F0200141602068416821F04F
:102B40000201416064212046FFF7AFFA18B1606DC1
:102B500040F020006065A068002118B92068C268B4
:102B600080680090E186012084F85100606D18B102
:102B70002046FFF769FD38BD2046FFF764FD38BDEC
:102B8000704710B5406AFFF7FBFF10BD2DE9F0411B
:102B90000446002594F85000012809D0012784F844
:102BA000507094F851000026012804D0022550E00E
:102BB0000220BDE8F08189B182B1032084F8510080
:102BC00066652163A286E286A66366642664A6879C
:102BD000E687A068B0F5004F02D00BE0012538E091
:102BE0002068016821F0400101602068016841F41B
:102BF00080410160A16CAD48C862A16CAC4888629C
:102C0000A16CAC480863A06C4663E38E2068216B1E
:102C100000F10C02A06C01F040FC38B1606D40F096
:102C200010006065012584F8517012E02068016889
:102C300011F0400F03D1016841F0400101602068AC
:102C4000416841F0200141602068416841F0020183
:102C5000416084F850602846BDE8F08170B50546B3
:102C60006C6A00F07BFC02462868006810F0200FB8
:102C700027D12068416821F020014160A06818B97F
:102C80006068B0F5827F16D02068416821F00101AC
:102C9000416064212046FFF7E8FA08B12020606512
:102CA0000020E087012084F85100606D48B1204683
:102CB000FFF7CAFC70BD2068416821F00301416044
:102CC000E7E72046FFF771FD70BD704710B5406A19
:102CD000FFF7FBFF10BD70B505466C6A00F03EFCC7
:102CE00002462868006810F0200F1ED12068416855
:102CF00021F02001416064212046FFF7D6F918B188
:102D0000606D40F0200060652068416821F003019B
:102D100041600020E086E087012084F85100606D6A
:102D200018B12046FFF790FC70BD2046FFF782FDEA
:102D300070BD704710B5406AFFF7FBFF10BD2DE96D
:102D4000F0410446002594F8500001280DD00127D9
:102D500084F8507094F85100D4F804C0002601287B
:102D60000FD0BCF5827F0AD102E00220BDE8F081DD
:102D7000D4F808C0BCF1000F01D1042801D002250D
:102D80006FE0002933D0002A31D07BB394F8510092
:102D9000042802D0052084F8510066652163A386CB
:102DA000E386A263A387E3872664666494F85100F0
:102DB00004281ED0E16C4048C862E16C3F4888623C
:102DC000E16C3C480863E06C4663E38F2068A26BCB
:102DD00000F10C01E06C01F060FB88B1606D40F027
:102DE00010006065012584F851703AE0FFE7012585
:102DF00037E0E16C3248C862E16C32488862DFE754
:102E00002068416841F001014160A06CC662A06C7D
:102E10008662A06C0663A06C4663E38E2068216B1B
:102E200000F10C02A06C01F038FB38B1606D40F08D
:102E300010006065012584F8517012E02068016877
:102E400011F0400F03D1016841F04001016020689A
:102E5000416841F0200141602068416841F0020171
:102E6000416084F850602846BDE8F0812DE9F041CA
:102E700004460025A0680423002804D1D4F804C027
:102E8000BCF5827F22D094F850C0BCF1010F25D050
:102E9000012784F8507094F851C00026BCF1010F4E
:102EA0001FD011E017280008F9270008832B00081D
:102EB0001B2B0008F92A0008352D0008D72C000824
:102EC000CD2C00085D2C0008022555E084F8513017
:102ED0002046BDE8F04113460A4630E70220BDE82F
:102EE000F08171B16AB184F851306665A163A2873F
:102EF000E28726646664A686E686B0F5004F02D0B7
:102F00000BE0012538E02068016821F040010160F4
:102F10002068016821F480410160E16CFB48C862CF
:102F2000E16CFB488862E16CFA480863E06C466338
:102F3000E38F2068A26B00F10C01E06C01F0ADFAA8
:102F400038B1606D40F010006065012584F8517063
:102F500012E02068016811F0400F03D1016841F0D0
:102F6000400101602068416841F020014160206813
:102F7000416841F00101416084F850602846BDE895
:102F8000F08181B0E44945F6C0520968B1FBF2F125
:102F90006422514300910168009AB2B1009A521E16
:102FA00000928A6812F0020FF6D00A6822F04002FE
:102FB0000A6001684A6822F0E0024A600168C96854
:102FC000072180F8511001B07047426D42F0400275
:102FD0004265EAE701684A6822F080024A600168B7
:102FE0000A6822F040020A60072180F851107047F9
:102FF000F0B583B004460025C74845F6C0510068C7
:10300000B0FBF1F0642148430190019802902068E0
:10301000416821F0200141602168486810F0800F6C
:103020000DD0BE4860640298002860D00298401E0F
:10303000029094F851000728F5D101980290486851
:1030400010F0400F0DD0B64820640298002854D0EC
:103050000298401E029094F851000728F5D101987B
:10306000029048684FF0400710F0020F4FF0000642
:1030700016D0A06CA0B14663A06C01F04CFA00B170
:1030800067652068416821F002014160206802996B
:1030900091B30299491E0291816811F0020FF6D096
:1030A0002068406810F0010F11D0E06C78B14663E1
:1030B000E06C01F030FA00B167652068016821F02A
:1030C000400101602068416821F001014160E6870C
:1030D000E686606D40281AD066652068C168806801
:1030E0000090012084F8510003B02846F0BD606DC7
:1030F00040F040006065A0E704E0606D40F04000F3
:103100006065ACE7606D40F040006065C8E7012590
:10311000E3E7704738B5446A2068016821F0400150
:103120000160E06C002545632068416821F00101E1
:10313000416000F013FA024664212046FEF7B5FF15
:1031400018B1606D40F040006065A06C10B1406B3C
:1031500000280FD1E587E586606D402800D06565C1
:103160002068C16880680090012084F851002046E2
:10317000FFF7CFFF38BD00B583B0406A0022816CF5
:103180004A6365490B6845F6C051B3FBF1F164230E
:103190005943029101684B6823F002034B60029986
:1031A000E9B10299491E02910168896811F0020F84
:1031B000F5D0C16C11B1496B00290ED1C287C2860E
:1031C000416D402900D042650168CA688968019153
:1031D000012180F85110FFF79CFF03B000BD416D45
:1031E00041F040014165E4E72DE9F04184B0044637
:1031F00000260125484845F6C0510068B0FBF1F0B3
:10320000642148430290029803902068416821F0AD
:10321000200141602168486810F0800F0CD03F48C1
:103220006064039818B30398401E039094F851000B
:103230000728F6D102980390486810F0400F0CD090
:10324000374820640398B8B10398401E039094F85F
:1032500051000728F6D102980390A06C002788B18E
:10326000496811F0020F0CD02E4941630AE0606DED
:1032700040F040006065DDE7606D40F04000606553
:10328000E9E74763E06C40B12168496811F0010F3C
:1032900002D02549416300E04763206840684FF051
:1032A000400810F0020F0AD0A06C40B101F057F9AD
:1032B00020B1A06C4763C4F8548000E0002520686A
:1032C000406810F0010F0AD0E06C40B101F047F9FE
:1032D00020B1E06C4763C4F8548000E00025012D64
:1032E0000FD1E787E786606D40281FD067652068AB
:1032F000C16880680190012084F851002046FFF7E2
:1033000008FF04B03046BDE8F0810000CD2C000875
:103310005D2C0008F92A00085C010020D52F000868
:10332000832F000877310008153100080126DEE7F9
:1033300090F8501001290CD0012180F8501001683C
:103340004A6822F003024A60002180F850100020F1
:1033500070470220704790F8501001290CD00121CD
:1033600080F8501001684A6842F003024A60002168
:1033700080F85010002070470220704770B5044656
:103380000025A06C002807D001F0C5F820B1606DC1
:1033900040F0100060650125E06C38B101F0BBF829
:1033A00020B1606D40F01000606501252068416823
:1033B00021F003014160012084F85100284670BDCE
:1033C00010B5406A0021C187C186FFF73DF910BDE5
:1033D00038B5044620684268816811F0400F0BD16F
:1033E00011F0010F08D012F0400F05D0216C01B090
:1033F0002046BDE83040084711F0020F08D012F017
:10340000800F05D0616C01B02046BDE83040084710
:1034100001F0200301F0400C53EA0C034CD012F0F1
:10342000200F49D011F0400F0AD094F85130032BEF
:1034300043D0636D43F004036365C36883680093FE
:1034400011F0200F09D0616D41F0010161658168C3
:103450000091016821F040010160606D00282BD0CF
:103460002068416821F0E0014160012084F85100AA
:1034700002F0020002F00101084322D020684168F6
:1034800021F003014160134DE06C40B14563E06CF5
:1034900001F065F818B1606D40F040006065A06C07
:1034A000002809D04563A06C01F059F8002803D02A
:1034B000606D40F04000606538BDC1688068009074
:1034C00038BD2046FFF7C0F838BD90F8510070476E
:1034D000406D7047C1330008704770B50446574DC2
:1034E0004FF47A712878B1FBF0F055490968B1FBC7
:1034F000F0F001F094FD08B1012070BD102C07D24E
:1035000000222146501E01F02CFD6C60002070BD91
:10351000012070BD10B54B48016841F010010160F9
:10352000032001F00FFD0020FFF7D7FFFDF71EF984
:10353000002010BD704710B543484FF0FF31C16007
:1035400000220261C160C260FFF7F4FF002010BDDD
:103550003A48816802781144816070473748806832
:10356000704736484068704770B50021334D2C785D
:10357000844206D028706868FFF7AFFF014601B1AA
:103580002C70084670BD2D480078704770B5044611
:10359000FFF7E4FF0546B4F1FF3F02D0274800786B
:1035A0000444FFF7DBFF401BA042FAD370BD4FF08D
:1035B000E020016921F00201016170474FF0E02035
:1035C000016941F0020101617047204870472048BD
:1035D0000068000C70471E480068C0F30B0070477D
:1035E0001C48006870471C48006870471B4800680A
:1035F00070471748416841F0010141607047144825
:10360000416821F00101416070471148416841F073
:103610000201416070470E48416821F0020141609B
:1036200070470B48416841F0040141607047084809
:10363000416821F0040141607047000060010020F2
:103640005C01002000200240001002400007010140
:10365000002004E0E8F7FF1FECF7FF1FF0F7FF1F63
:103660002DE9F041FFF77AFF0546F74C206840F05E
:1036700001002060206810F0020F0BD1FFF76EFFF1
:10368000401B022802D90320BDE8F081206810F019
:10369000020FF3D0206820F0F80040F08000206096
:1036A000FFF75CFF054600266660606810F00C0FAF
:1036B0000DD041F28837FFF751FF401BB84202D9C5
:1036C0000320BDE8F081606810F00C0FF3D1E049F1
:1036D000DE480860DF480068FFF7FFFE10B10120F8
:1036E000BDE8F081FFF73AFF0546206820F08070C2
:1036F0002060206810F0007F0BD0FFF72FFF401BE9
:10370000022802D90320BDE8F081206810F0007F74
:10371000F3D16660FFF722FF0546206820F41020F1
:103720002060206810F4003F0BD0FFF717FF401B0C
:10373000642802D90320BDE8F081206810F4003F1E
:10374000F3D1206820F480202060606A40F080700F
:103750006062A6600020BDE8F08181B0BC494FF4F2
:10376000FA520968B1FBF2F14843009000BF00989B
:10377000411E0091FAD201B070472DE9F84F04467E
:10378000002C0FD02078B04D10F0010F6CD068687D
:1037900000F00C0004280CD0686800F00C00082829
:1037A00003D010E00120BDE8F88F686810F4803F76
:1037B00009D0286810F4003F56D06068002853D123
:1037C0000120BDE8F88F6068B0F5803F15D0C8B122
:1037D000B0F5A02F1FD0286820F48030286028681A
:1037E00020F480202860606858B3FFF7B7FE0646D3
:1037F000286810F4003F17D036E0286840F4803085
:103800002860F0E7286820F480302860286820F4D9
:1038100080202860E7E7286840F480202860286836
:1038200040F480302860DEE7FFF798FE801B6428B4
:1038300002D90320BDE8F88F286810F4003FF3D0C8
:1038400012E0FFF78BFE0646286810F4003F0BD00D
:10385000FFF784FE801B642802D90320BDE8F88F9F
:10386000286810F4003FF3D120787B4F10F0020F4E
:103870004FF0010B4FF0000854D0686810F00C0FA7
:1038800014D0686800F00C00082803D1686810F4B0
:10389000803F0BD0206978B3C7F800B0FFF75EFE19
:1038A0000646286810F0020F12D01DE0286810F0BC
:1038B000020F05D02069012802D00120BDE8F88F51
:1038C0002868616920F0F80040EAC100286029E01A
:1038D000FFF744FE801B022802D90320BDE8F88FC1
:1038E000286810F0020FF3D02868616920F0F80012
:1038F00040EAC100286015E0FFE7C7F80080FFF745
:103900002DFE0646286810F0020F0BD0FFF726FEAA
:10391000801B022802D90320BDE8F88F286810F028
:10392000020FF3D1207810F0080F30D04B48A16976
:10393000C1B1C0F800B0FFF711FE0646686A10F08A
:10394000020F0BD1FFF70AFE801B022802D90320C9
:10395000BDE8F88F686A10F0020FF3D00120FFF77E
:10396000FCFE14E0C0F80080FFF7F8FD0646686A28
:1039700010F0020F0BD0FFF7F1FD801B022802D9D7
:103980000320BDE8F88F686A10F0020FF3D12078A9
:1039900010F0040F6FD00026E86910F0805F08D1A6
:1039A000E86940F08050E861E86900F080500090DC
:1039B0000126DFF8ACA0DAF8000010F4807F1BD1FC
:1039C000DAF8000040F48070CAF80000FFF7C6FD86
:1039D0008146DAF8000010F4807F0DD1FFF7BEFDBC
:1039E000A0EB0900642802D90320BDE8F88FDAF8BB
:1039F000000010F4807FF1D0E068012816D0D0B12B
:103A000005282FD0286A20F001002862286A20F0BB
:103A100004002862E06841F2883A68B3FFF79EFD2F
:103A20008146286A10F0020F27D048E0286A40F04B
:103A300001002862EEE7286A20F001002862286A67
:103A400020F004002862E5E70010024000127A002E
:103A50005C010020640100200000424280044242D8
:103A600000700040286A40F004002862286A40F094
:103A700001002862CEE728E00DE0FFF76FFDA0EB24
:103A80000900504502D90320BDE8F88F286A10F0DC
:103A9000020FF2D013E0FFF761FD8146286A10F0B3
:103AA000020F0CD0FFF75AFDA0EB0900504502D9D8
:103AB0000320BDE8F88F286A10F0020FF2D1012E22
:103AC00003D1E86920F08050E861E069F0B36968EB
:103AD00001F00C01082956D0022810D0C7F86080E8
:103AE000FFF73CFD0446286810F0007F5ED0FFF72A
:103AF00035FD001B022841D90320BDE8F88FC7F827
:103B00006080FFF72BFD0646286810F0007F0BD081
:103B1000FFF724FD801B022802D90320BDE8F88F9F
:103B2000286810F0007FF3D1206AB0F5803F05D1FE
:103B30006868A16820F4003008436860616A206A00
:103B40000843696821F47411084300E02EE06860BE
:103B5000C7F860B0FFF702FD0446286810F0007F48
:103B600024D1FFF7FBFC001B022802D90320BDE88B
:103B7000F88F286810F0007FF3D017E0286810F065
:103B8000007FB4D112E001280DD06868226A00F4E9
:103B90008031914204D1616A00F47010884205D0EE
:103BA0000120BDE8F88F0120BDE8F88F0020BDE8B6
:103BB000F88F85B0CDA0836842680168C068039320
:103BC000029201910490CDA000680090CC4B5968FE
:103BD000CC4801F00C02042A11D0082A0FD101A808
:103BE000C1F38342805C11F4803F0AD05968C1F36D
:103BF00040411DF80110C34A5043B0FBF1F005B03D
:103C00007047C14905B0484370472DE9F047044665
:103C10000D46002C17D0DFF8F482D8F8000000F031
:103C20000700A84212D2D8F8000020F0070028436D
:103C3000C8F80000D8F8000000F00700A84205D03E
:103C40000120BDE8F0870120BDE8F0872068AC4E78
:103C500010F0020F14D010F0040F03D0706840F47D
:103C6000E0607060207810F0080F03D0706840F4B6
:103C700060507060706820F0F001A06808437060C8
:103C8000207810F0010F3AD06068012806D0022891
:103C90000BD0316811F0020F27D00AE0316811F41F
:103CA000003F06D10120BDE8F087316811F0007FA8
:103CB00018D0716821F0030108437060FFF74EFCD3
:103CC00007467068616800F00C00B0EB810F16D0F9
:103CD00041F28839FFF742FCC01B484508D9032050
:103CE000BDE8F0870120BDE8F0870120BDE8F0873E
:103CF0007068616800F00C00B0EB810FEAD1D8F871
:103D0000000000F00700A8420FD9D8F8000020F00A
:103D100007002843C8F80000D8F8000000F00700AA
:103D2000A84202D00120BDE8F087207810F0040FEF
:103D300005D07068E16820F4E06008437060207886
:103D400010F0080F06D07068216920F4605040EA36
:103D5000C1007060FFF72DFF71686D4AC1F3031158
:103D6000515CC8406B4908606B480068FFF7B5FBC1
:103D70000020BDE8F08730B587B00D4600200490E4
:103D800002200390032005904FF4807002905C4C59
:103D9000A06940F00400A061A06900F00400019057
:103DA00002A95E4800F0C0F8606820F0E060284397
:103DB000606007B030BD5A490120C8647047584957
:103DC0000020C864704753480068704700B5FFF78B
:103DD000FAFF4B494968534AC1F30221515CC8407C
:103DE00000BD00B5FFF7EFFF454949684D4AC1F3F3
:103DF000C221515CC84000BD0F210160404B1968D1
:103E000011F4802F4FF0000103D04FF4A022426044
:103E100008E01A6812F4803F03D04FF48032426009
:103E200000E041605A6802F4003282601A6812F0C1
:103E3000010F4FF0010201D0026100E00161D3F8EF
:103E400000C0CCF3C40CC0F814C0D3F820C01CF0E0
:103E5000040F04D04FF0050CC0F80CC007E0D3F8F5
:103E600020C01CF0010F01D0C26000E0C160D3F897
:103E700024C01CF0010F01D0826100E0816119684B
:103E800011F0807F02D00221C16100E0C261596857
:103E900001F480310162596801F470114162704788
:103EA0000F220260164A536803F00303436053680D
:103EB00003F0F0038360536803F4E063C360526867
:103EC00002F46052D20802611048006800F0070056
:103ED00008607047704710B5094CA06810F0800F5B
:103EE00003D0FFF7F7FF8020A07210BD0203040586
:103EF000060708090A0B0C0D0E0F10100102000036
:103F00000010024000127A0000093D00002002402B
:103F10004C8F00085C010020640100200008014073
:103F2000000042425C8F00082DE9F84F4FF0000C72
:103F300000230A68002A7DD0DFF8A4830F2708F148
:103F4000040909F1040A0AF1040B012202FA0CF631
:103F50000A683240B2426ED1DFF888E34C68A4EBC5
:103F60000E0574452BD00DDC032C34D005DC34B3A6
:103F7000012C19D0022C2FD11BE0112C16D0122CA1
:103F80002AD119E0B5F5881F19D006DCB5F5803FB8
:103F900015D0B5F5801F1FD111E0B5F5001F0ED06B
:103FA000B5F5041F18D10AE0CB6815E0CB681B1DDE
:103FB00012E0CB6808330FE0CB680C330CE08B6861
:103FC00023B1012B04D00823466105E0042303E05C
:103FD0000823066100E00023B2F5807F01D2054688
:103FE00001E000F1040502D24FEA8C0403E0ACF1D9
:103FF00008044FEA84042E6807FA04FE26EA0E0637
:1040000003FA04F446EA04042C604C6814F0805F60
:1040100011D0B54CA56945F00105A561A46904F06E
:10402000010400942CF0030404F1804404F580346E
:10403000A66801E07CE074E04FEA8C754FEA1575E4
:1040400007FA05FE26EA0E0EA0F18046B6F5843684
:1040500028D0A0F18046B6F5863625D0A0F180465E
:10406000B6F5883622D0A0F18046B6F58A361FD044
:10407000A0F18046B6F58C361CD0A0F18046B6F58E
:104080008E3619D0062606FA05F545EA0E05A56016
:104090004C6814F4803F11D0D8F800401443C8F89D
:1040A000004010E00026EEE70126ECE70226EAE7F2
:1040B0000326E8E70426E6E70526E4E7D8F800400B
:1040C0009443C8F800404C6814F4003F05D0D9F878
:1040D00000401443C9F8004004E0D9F8004094437C
:1040E000C9F800404C6814F4801F05D0DAF800408D
:1040F0001443CAF8004004E0DAF800409443CAF8D8
:1041000000404C6814F4001F05D0DBF80040224347
:10411000CBF8002005E0DBF8004024EA0202CBF8EF
:1041200000200CF1010C0A6832FA0CF27FF40DAF9A
:10413000BDE8F88F2DE9F04F002200296FD0DFF89D
:10414000B091DFF8A8E1DFF8988109F1040A0F27A0
:10415000012393400B40002B7ED022F0030C0CF186
:10416000804404F58034D4F808C095072E0F07FA70
:1041700006F505EA0C0B704502D14FF0000C1AE071
:10418000A0F1804CBCF5863C3DD0A0F1804CBCF544
:10419000883C3BD0A0F1804CBCF58A3C39D0A0F1E2
:1041A000804CBCF58C3C37D0A0F1804CBCF58E3CEB
:1041B00036D04FF0060C0CFA06FCDC451ED1D4F8C4
:1041C00008C02CEA050CC4F808C0D8F800C02CEAD6
:1041D000030CC8F800C0DFF81CC1DCF800409C43A9
:1041E000CCF80040D9F800C02CEA030CC9F800C094
:1041F000DAF800C02CEA030CCAF800C0B3F5807FDF
:1042000011D2844611E04FF0010CD4E74FF0020CBC
:10421000D1E74FF0030CCEE74FF0040CCBE727E0DB
:104220004FF0050CC7E700F1040C02D24FEA8204FC
:1042300003E0A2F108044FEA8404DCF8005007FA16
:1042400004F625EA06064FF0040505FA04F446EAEA
:104250000404CCF8004000E004E0D0F80CC02CEAE4
:104260000303C36002F1010231FA02F37FF470AF7D
:10427000BDE8F08F8068084201D00120704700201F
:104280007047002A01D0016170470904016170473D
:10429000C26821EA0203114043EA0141016170470B
:1042A00081B041F480320092009A8261816100996C
:1042B000816181690091806910F4803F02D0002003
:1042C00001B07047012001B07047704710B50A492E
:1042D0000A68024202D00860FFF7F7FF10BD000035
:1042E00000040140000011100010024000080140CD
:1042F00008040140040401401404014010B40028E3
:104300000ED0FD4B0168FD4A99420CD2FC4B0B4488
:10431000A2FB0332120992000264FA4AC2630BE064
:1043200010BC01207047F84B0B44A2FB033212096A
:1043300092000264F54AC263022280F821200A68D2
:104340006FF30D12D0F808C04368046943EA0C0308
:10435000D0F80CC04CEA040C43EA0C03D0F814C0AB
:1043600043EA0C03D0F818C043EA0C03D0F81CC091
:1043700043EA0C031A430A6000218163012280F89A
:10438000212080F8201010BC0020704700281ED08B
:1043900001680A6822F001020A60026800211160C7
:1043A00002685160026891600268D160DFF848C31A
:1043B0000268D24B62450CD2DFF844C36244A3FBCF
:1043C0000232120992000264CE4AC2630BE001205D
:1043D0007047DFF834C36244A3FB02321209920033
:1043E0000264CA4AC26390F84020012303FA02F231
:1043F000C36B5A608162C16201634163816380F86B
:10440000211080F820100020704710B490F840C0B0
:10441000012404FA0CFCC46BC4F804C0D0F800C03A
:10442000CCF804304368102B05D00368996000680D
:10443000C26010BC704703689A600068C16010BC1D
:10444000704770B50446002594F8200001280DD06F
:10445000012084F8200094F821C00020BCF1010F55
:1044600006D084F820000225284670BD022070BDC9
:104470004FF0020C84F821C0A0632068D0F800C07F
:104480002CF0010CC0F800C02046FFF7BEFF2068EA
:10449000016841F001010160E6E770B504460025BE
:1044A00094F8200001280DD0012084F8200094F811
:1044B00021C00020BCF1010F06D084F820000225A5
:1044C000284670BD022070BD4FF0020C84F821C058
:1044D000A0632068D0F800C02CF0010CC0F800C028
:1044E0002046FFF792FFE06A28B12068016841F09A
:1044F0000E01016009E02068016821F004010160FB
:104500002068016841F00A0101602068016841F0FB
:1045100001010160D4E790F821100022022905D0A2
:104520000421816380F820200120704701680B6816
:1045300023F00E030B6001680B6823F001030B608E
:1045400090F84030D0F83CC0012101FA03F3CCF8D8
:10455000043080F8211080F82020104670472DE9A3
:10456000F05F002490F82110022903D00421816318
:10457000012490E001680A6822F00E020A600168D6
:104580000A6822F001020A60614A0168614BDFF8A3
:1045900088C1624D624E634FDFF88C81DFF858911D
:1045A000DFF888A1DFF888B1DFF888E1914232D9DD
:1045B000994201D101212BE0614501D1102127E071
:1045C000A94202D14FF4807122E0B14202D14FF4EE
:1045D00080511DE0B94202D14FF4803118E04145CD
:1045E00002D14FF4801113E0494501D101210FE0C0
:1045F000514501D110210BE0594502D14FF4807192
:1046000006E0714502D14FF4805101E04FF4803152
:10461000494A116036E0994201D1012130E06145FB
:1046200001D110212CE0A94202D14FF4807127E082
:10463000B14202D14FF4805122E0B94202D14FF48D
:1046400080311DE0414502D14FF4801118E09142C4
:1046500002D14FF0807113E0494501D101210FE0F3
:10466000514501D110210BE0594502D14FF4807121
:1046700006E0714502D14FF4805101E04FF48031E2
:10468000204A5160012180F82110002180F820107B
:10469000416B01B188472046BDE8F09F2DE9F74FF7
:1046A00082B00446164694F82100022808D004205F
:1046B000A063002084F8200005B00120BDE8F08F41
:1046C0002068016811F0200F06D04FF48070A063BD
:1046D00005B00120BDE8F08FDFF83880DFF83890B2
:1046E000DFF838A0DFF838B0094F039919B1404519
:1046F0005FD1042593E021E008040240CDCCCCCC6E
:10470000F8FFFDBF00000240F8FBFDBF00040240BF
:1047100080000240080002401C00024030000240BD
:1047200044000240580002406C0002401C04024059
:10473000300402404404024004040240404501D1D8
:1047400002256CE0484501D1202568E0504502D1A2
:104750004FF4007563E0584502D14FF400555EE018
:10476000F949884202D14FF4003558E0F7498842B0
:1047700002D14FF4001552E0B84202D14FF000755B
:104780004DE0F349884201D1022548E0F1498842D1
:1047900001D1202543E0F049884201D145153EE092
:1047A000EE49884202D14FF4005538E04FF400350D
:1047B00035E0484501D1402531E0504502D14FF464
:1047C00080652CE0584502D14FF4804527E0DE4952
:1047D000884202D14FF4802521E0DC49884202D191
:1047E0004FF480051BE0B84202D14FF0806516E01F
:1047F000D749884201D1042511E0D649884201D128
:1048000040250CE0D449884201D1051507E0D34981
:10481000884202D14FF4804501E04FF48025FEF735
:104820009DFE01902068CE49B84202D90868284010
:1048300002E0CC480068284000286FD12068B842C8
:1048400038D9C7490968404501D1082030E04845BA
:1048500001D180202CE0504502D14FF4006027E0C8
:10486000584502D14FF4004022E0B74A904202D1AD
:104870004FF400201CE0B54A904202D14FF40000F2
:1048800016E0B34A904201D1082011E0B14A9042AB
:1048900001D180200CE0B04A904201D1C01407E061
:1048A000AE4A904202D14FF4004001E04FF40020A4
:1048B00008403DE0AB490968404501D1082036E099
:1048C000484501D1802032E0504502D14FF40060CC
:1048D0002DE0584502D14FF4004028E09A4A90421A
:1048E00002D14FF4002022E0984A904202D14FF4C6
:1048F00000001CE0B84202D14FF0006017E0944A7B
:10490000904201D1082012E0924A904201D18020C9
:104910000DE0914A904202D1C01408E042E08F4A73
:10492000904202D14FF4004001E04FF400200840D3
:1049300098B194F84010E26B012000FA01F1516047
:10494000A16B41F00101A16384F82100002084F8EB
:10495000200005B00120BDE8F08FB6F1FF3F14D074
:104960002EB1FEF7FBFD0199401AB0420DD9A06BA4
:1049700040F02000A063012084F82100002084F88A
:10498000200005B00120BDE8F08F2068B84203D9AF
:1049900073480068284002E07248006828400028F8
:1049A0003FF44CAF7049039830B12068B8426FD9DA
:1049B00040457DD10420ACE02068B84236D940455E
:1049C00001D1022030E0484501D120202CE05045A3
:1049D00002D14FF4007027E0584502D14FF4005047
:1049E00022E0594A904202D14FF400301CE0574A6D
:1049F000904202D14FF4001016E0554A904201D186
:104A0000022011E0534A904201D120200CE0524A8A
:104A1000904201D1401507E0504A904202D14FF434
:104A2000005001E04FF4003008603DE0404501D106
:104A3000022037E0484501D1202033E0504502D123
:104A40004FF400702EE0584502D14FF4005029E099
:104A50003D49884202D14FF4003023E03B4988426F
:104A600002D14FF400101DE0B84202D14FF00070A7
:104A700018E03749884201D1022013E035498842C5
:104A800001D120200EE03449884203D1401509E0CD
:104A900041E00DE03149884202D14FF4005001E07D
:104AA0004FF400302F494860012084F8210081E054
:104AB000484501D140202CE0504502D14FF48060A0
:104AC00027E0584502D14FF4804022E01E4A904230
:104AD00002D14FF480201CE01C4A904202D14FF4D6
:104AE000800016E01A4A904201D1042011E0194AD0
:104AF000904201D140200CE0174A904201D10015AC
:104B000007E0164A904202D14FF4804001E04FF492
:104B1000802008604EE0404501D1042048E048452F
:104B200001D1402044E0504502D14FF480603FE085
:104B3000584502D14FF480403AE00349884215D1EC
:104B40004FF4802034E00000580002406C00024026
:104B5000080402401C0402403004024044040240A5
:104B6000000402400000024004040240E849884278
:104B700002D14FF480001BE0B84202D14FF08060B8
:104B800016E0E449884201D1042011E0E24988425C
:104B900001D140200CE0E149884201D1001507E035
:104BA000DF49884202D14FF4804001E04FF4802079
:104BB000DC494860002084F8200005B0BDE8F08F93
:104BC0002DE9F05FC16B0A6801680B68D0F840B04E
:104BD0004FF0040C0CFA0BFC1CEA020FDFF848C380
:104BE000D24CD34DD34ED44FDFF82483DFF8249337
:104BF000DFF824A370D013F0040F7ED00A6812F0FF
:104C0000200F03D10A6822F004020A60CB4A01682F
:104C1000914233D9614501D104212CE0A14201D157
:104C2000402128E0A94202D14FF4806123E0B14243
:104C300002D14FF480411EE0B94202D14FF48021ED
:104C400019E0414502D14FF4800114E0494501D1FA
:104C5000042110E0514501D140210CE0AF4A9142BE
:104C600001D1091507E0AE4A914202D14FF48041CB
:104C700001E04FF48021B24A116038E0614501D172
:104C8000042132E0A14201D140212EE0A94202D10B
:104C90004FF4806129E0B14202D14FF4804124E019
:104CA000B94202D14FF480211FE0414502D14FF4B7
:104CB00080011AE0914202D14FF0806115E0494530
:104CC00001D1042111E0514501D140210DE0934A69
:104CD000914202D1091508E00FE0914A914202D1B8
:104CE0004FF4804101E04FF480218E4A5160C16A47
:104CF000002970D0BDE8F05F08474FF0020E0EFAB1
:104D00000BFE1EEA020F67D013F0020F64D00A6890
:104D100012F0200F06D10A6822F00A020A6001216F
:104D200080F82110854A0168914233D9614501D14B
:104D300002212CE0A14201D1202128E0A94202D188
:104D40004FF4007123E0B14202D14FF400511EE054
:104D5000B94202D14FF4003119E0414502D14FF47C
:104D6000001114E0494501D1022110E0514501D163
:104D700020210CE0694A914201D1491507E0684AB7
:104D8000914202D14FF4005101E04FF400316C4ADE
:104D9000116039E0614501D1022133E0A14201D126
:104DA00020212FE0A94202D14FF400712AE0B14244
:104DB00002D14FF4005125E0B94202D14FF4003145
:104DC00020E0414502D14FF400111BE0914204D193
:104DD0004FF0007116E041E01FE0494501D102218A
:104DE00010E0514501D120210CE04C4A914201D103
:104DF000491507E04A4A914202D14FF4005101E0BF
:104E00004FF40031474A5160002180F82010816A38
:104E1000002923D0BDE8F05F08474FF0080C0CFADA
:104E20000BFC1CEA020F19D013F0080F16D00A6809
:104E300022F00E020A6090F84020C36B012101FAB3
:104E400002F25A60816380F82110002180F820105E
:104E5000016B002902D0BDE8F05F0847BDE8F09F74
:104E6000002390F820C0BCF1010F0ED04FF0010CD0
:104E700080F820C090F821C0BCF1010F07D00123B9
:104E8000002180F82010184670470220704739B181
:104E9000012907D0022907D0032907D00123EFE712
:104EA0008262EDE7C262EBE70263E9E74263E7E7AC
:104EB000002290F82030012B0DD0012380F8203003
:104EC00090F821C00023BCF1010F06D0012280F828
:104ED00020301046704702207047052911D2DFE8C4
:104EE00001F0030507090B008362F0E7C362EEE7F8
:104EF0000363ECE74363EAE78362C36203634363EC
:104F0000E5E70122E3E790F821007047806B7047E6
:104F10006C000240080402401C04024030040240BD
:104F20004404024000000240080002401C0002400D
:104F3000300002404400024058000240800002401D
:104F40000404024000F00700844A11684FF6FF0392
:104F5000194041EA002040F0FD7040F08060106090
:104F6000704710B47D4B1B68C3F30223C3F1070CD9
:104F7000BCF1040F01D94FF0040C1C1D072C01D209
:104F8000002300E0DB1E012404FA0CFCACF1010C50
:104F90000CEA0101994004FA03F35B1E1A40114325
:104FA000002806DB00F1E020090180F8001410BCA5
:104FB000704700F00F0000F1E020090180F8141D97
:104FC00010BC704700280ADB00F01F01012202FA22
:104FD00001F14009800000F1E020C0F800117047A5
:104FE00000280EDB00F01F01012202FA01F1400946
:104FF000800000F1E020C0F88011BFF34F8FBFF3B5
:105000006F8F7047BFF34F8F54480168544A01F4C3
:10501000E06111430160BFF34F8F00BFFDE7401E09
:10502000B0F1807F01D3012070474FF0E02148614B
:105030004C4AF02010700020886107200861002091
:10504000704746480068C0F30220704730B400281B
:1050500006DB00F1E02090F800044FEA101C07E0A6
:1050600000F00F0000F1E02090F8140D4FEA101C42
:1050700001F00700C0F10701042900D90421041D33
:10508000072C01D2002000E0C01E01242CFA00F5FC
:1050900004FA01F1491E2940116004FA00F0401E93
:1050A00000EA0C00186030BC704700280ADB00F0F2
:1050B0001F01012202FA01F14009800000F1E02005
:1050C000C0F800127047002810DB4109890001F187
:1050D000E021D1F8001200F01F00012202FA00F0D6
:1050E000014201D001207047002070470020704726
:1050F00000280ADB00F01F01012202FA01F1400939
:10510000800000F1E020C0F880127047002810DB1A
:105110004109890001F1E021D1F8001300F01F00DE
:10512000012202FA00F0014201D001207047002064
:105130007047002070474FF0E021042804D0086930
:1051400020F0040008617047086940F0040008611D
:105150007047704710B5FFF7FCFF10BD0CED00E085
:105160000400FA0523ED00E00020CB49CA6812F0E4
:10517000100FCA4A04D0D06940F00200D06110205C
:10518000CB6813F0040F05D0D36943F00103D3615A
:1051900040F00400CB6913F0010F07D0D36943F04E
:1051A0000403D361CA6922F00102CA61A0F58072CA
:1051B000013A01D0C8607047C86920F00100C86199
:1051C000704770B50446FEF7C9F90646B24DE86867
:1051D00010F0010F0ED0B4F1FF3F07D024B1FEF75D
:1051E000BDF9801BA04201D9032070BDE86810F012
:1051F000010FF0D1E86810F0200F01D02020E86006
:10520000E86810F0100F07D1E86910F0010F03D122
:10521000E86810F0040F03D0FFF7A6FF012070BD6F
:10522000002070BD9D4B0022DA619B4A136943F058
:1052300001031361018070472DE9F0470746884656
:1052400015461E460024DFF8549299F818000128EC
:1052500008D0012089F818004CF25030FFF7B1FF58
:1052600018B129E00220BDE8F087012F1CD0022FE1
:105270001CD00427002F1FD9DFF81CA222012846CA
:10528000314601F056FB81B208EB4400FFF7CAFF3C
:105290004CF25030FFF795FFDAF8101021F00101C1
:1052A000CAF8101040B903E00127E3E70227E1E75D
:1052B000611CCCB2BC42E1D3002189F81810BDE8D2
:1052C000F0872DE9F04184460D4600247348017EA5
:1052D00001291AD0012101766F4E376947F4A05792
:1052E0003761856002614361BCF1010F10D0042178
:1052F000BCF1020F10D005230370416091B2284623
:10530000FFF790FF2046BDE8F0810220BDE8F08164
:10531000032303704160F1E7017002214160EDE772
:10532000704770472DE9F0415B4EF0685B4C10F020
:10533000100F4FF0FF374FF0000503D1F06810F069
:10534000040F08D0D4F80880A760FFF70DFF40468F
:10535000FFF7E7FF2570F06810F0200F55D02020F0
:10536000F0602078002850D0207801281ED02078C6
:10537000022835D06068401E60606068002838D020
:10538000A068801CA060A06822696169120C42EAD2
:105390000142090C22616161316921F00101316131
:1053A0002169626989B2FFF73DFF2EE06068401E07
:1053B0006060606868B1A068FFF7B2FFA06800F5A0
:1053C0000060A060316921F00201316100F06CF8E9
:1053D0001BE04FF0FF30A0602570FFF7A1FF14E045
:1053E000306920F0040030610020FFF799FF25703C
:1053F0000BE02078032816D02078042817D0A06866
:10540000801FFFF78DFFA76025702078002808D146
:10541000306920F007003061306920F4A05030611D
:105420002576BDE8F081A068FFF77AFFEBE7A0687A
:10543000801EFFF775FFE6E7002017490A6912F0A2
:10544000800F08D0164A4A60164A4A60096911F06E
:10545000800F00D0012070470F48016941F08001A2
:105460000161002070470C48016911F4007F01D0F0
:10547000012070470A4981600A4981600020704715
:105480000548016921F40071016100207047FFF7B0
:10549000B9BD0248C069704700200240B802002030
:1054A00023016745AB89EFCDF84A0021D161F84966
:1054B0000A6942F002020A614861086940F040004E
:1054C00008617047F1490020C861F148016941F065
:1054D00004010161016941F04001016170472DE95A
:1054E000F04705460F464FF00109DFF8A08398F812
:1054F000180001280CD0012088F818002868E44E14
:10550000022808D04CF25030FFF75BFEA8B136E01D
:105510000220BDE8F0874CF25030FFF752FE28BB66
:105520000120FFF7CFFF4CF25030FFF74AFE8146D3
:10553000306920F00400306121E04FF0FF30386026
:10554000AC68E86804EBC020A04218D92046FFF7F9
:10555000ABFF4CF25030FFF734FE8146306920F04B
:10556000020030615FEA090001D03C6007E004F509
:105570000064E968A86800EBC120A042E6D80020DA
:1055800088F818004846BDE8F08710B50024BF49E8
:105590000A7E012A05D001220A760B781BB1012070
:1055A00010BD022010BDBA4BD3F810C04CF4A05C63
:1055B000C3F810C00368022B09D00A70C2684A60A1
:1055C00082688A608068FFF76FFF204610BD022264
:1055D0000A704068FFF776FFF7E770B505464CF2B2
:1055E0005030FFF7EEFD002822D1A849C861A84C31
:1055F000206940F020002061206940F040002061D7
:105600004CF25030FFF7DDFD216921F020012161CE
:1056100000280DD1206940F0100020619D480580D0
:105620004CF25030FFF7CDFD216921F010012161CE
:1056300070BDA5209649C96901F00201022900D177
:105640000020704770B5FFF7F4FFC5B24CF2503040
:10565000FFF7B7FD002818D18C49C8618C4C206930
:1056600040F020002061206940F0400020614CF2B1
:105670005030FFF7A6FD216921F0200121610028AB
:1056800003D12846BDE87040A7E770BD70B5064657
:105690000D464CF25030FFF794FD00280FD17B49A6
:1056A000C8617B4C206940F01000206135804CF2CD
:1056B0005030FFF786FD216921F01001216170BD96
:1056C00070B505464CF25030FFF77BFD002812D133
:1056D0006E49C8616E4C206940F0100020616E492F
:1056E00045F0880008804CF25030FFF76AFD2169D0
:1056F00021F01001216170BD6548006A70472DE9F5
:10570000F0410446FFF7F8FF2043C4B2C0F3072579
:10571000C0F30746070E4CF25030FFF752FD002849
:105720003FD15A480021C161FFF78CFF002838D1D2
:10573000DFF85C81D8F8101041F01001C8F81010A3
:10574000FF2C07D055480188214301804CF250308E
:10575000FFF737FD48B9FF2D07D05148018829438D
:1057600001804CF25030FFF72CFD48B9FF2E07D0D6
:105770004C480188314301804CF25030FFF721FD45
:1057800048B9FF2F07D048480188394301804CF2BF
:105790005030FFF716FDD8F8101021F01001C8F8AE
:1057A0001010BDE8F0812DE9F0410446FFF7A4FF99
:1057B000A043C4B2C0F30725C0F30746070E4CF25E
:1057C0005030FFF7FEFC00283FD130480021C16176
:1057D000FFF738FF002838D1DFF8B480D8F8101070
:1057E00041F01001C8F81010FF2C07D02B48018899
:1057F000214001804CF25030FFF7E3FC48B9FF2D07
:1058000007D027480188294001804CF25030FFF72B
:10581000D8FC48B9FF2E07D02248018831400180CA
:105820004CF25030FFF7CDFC48B9FF2F07D01E488F
:105830000188394001804CF25030FFF7C2FCD8F8A3
:10584000101021F01001C8F81010BDE8F08170B5FB
:10585000044601200D4D297E012910D00121297611
:1058600021784FF0000611F0010F1FD06068012869
:1058700007D0A068FFF743FFC0B12E7670BD0220AD
:1058800070BDA068FFF78FFFF6E70000B8020020A8
:105890000020024000F8FF1F02F8FF1F08F8FF1F5A
:1058A0000AF8FF1F0CF8FF1F0EF8FF1F217811F0F8
:1058B000020F05D0207CFFF790FE08B12E7670BD58
:1058C000217811F0040F05D0607CFFF7F9FE08B1D4
:1058D0002E7670BD217811F0080F06D0217E606908
:1058E000FFF7D4FE08B12E7670BD2E7670BD0F483E
:1058F000C069C0F38200704710B5044607202060DD
:10590000FFF7FAFEA060FFF794FE2074FFF7EFFFA9
:10591000607410BD064A0549904203D1C869C0F3BE
:1059200087207047C869C0F3874070470020024055
:1059300004F8FF1F70B5044620680169E26821F48D
:105940004051114301612169A06808436169014325
:105950002068C26822F4037222F4A0521143C1608D
:1059600020684169A26921F44071114341612068B6
:10597000A0F18041B1F59C313AD0FEF727FA00EB57
:10598000C00101EB00106168F94A8900B0FBF1F336
:10599000A2FB0353B0FBF1FC5B096FF018056B43EE
:1059A0000CEB83034FF0320C0CEB0313A2FB0353FD
:1059B0005B0903F0F005B0FBF1F3A2FB03635B09A5
:1059C00005EB0313B0FBF1F5B0FBF1F0A2FB001007
:1059D00040096FF01801484305EB80000CEB001004
:1059E000A2FB00102168C0F343101844886070BD0A
:1059F000FEF7F7F9C3E7704770B50446002C04D0F2
:105A000094F83900002510B106E0012070BD84F83B
:105A100038502046FAF73EFE242084F839002068EA
:105A2000C16821F40051C1602046FFF783FF206860
:105A3000016921F4904101612068416921F02A0146
:105A400041612068C16841F40051C160E5632020D4
:105A500084F8390084F83A00002070BD70B504461F
:105A6000002C04D094F83900002510B106E0012084
:105A700070BD84F838502046FAF70CFE242084F8D4
:105A800039002068C16821F40051C1602046FFF749
:105A900051FF2068016921F490410161206841694A
:105AA00021F0220141612068416941F00801416112
:105AB0002068C16841F40051C160E563202084F88A
:105AC000390084F83A00002070BD70B504460E46D7
:105AD000002C04D094F83900002510B106E0012014
